{
  "_format": "hh-sol-artifact-1",
  "contractName": "CarbonToken",
  "sourceName": "contracts/CarbonToken.sol",
  "abi": [
    {
      "inputs": [],
      "stateMutability": "nonpayable",
      "type": "constructor"
    },
    {
      "inputs": [
        {
          "internalType": "address",
          "name": "spender",
          "type": "address"
        },
        {
          "internalType": "uint256",
          "name": "allowance",
          "type": "uint256"
        },
        {
          "internalType": "uint256",
          "name": "needed",
          "type": "uint256"
        }
      ],
      "name": "ERC20InsufficientAllowance",
      "type": "error"
    },
    {
      "inputs": [
        {
          "internalType": "address",
          "name": "sender",
          "type": "address"
        },
        {
          "internalType": "uint256",
          "name": "balance",
          "type": "uint256"
        },
        {
          "internalType": "uint256",
          "name": "needed",
          "type": "uint256"
        }
      ],
      "name": "ERC20InsufficientBalance",
      "type": "error"
    },
    {
      "inputs": [
        {
          "internalType": "address",
          "name": "approver",
          "type": "address"
        }
      ],
      "name": "ERC20InvalidApprover",
      "type": "error"
    },
    {
      "inputs": [
        {
          "internalType": "address",
          "name": "receiver",
          "type": "address"
        }
      ],
      "name": "ERC20InvalidReceiver",
      "type": "error"
    },
    {
      "inputs": [
        {
          "internalType": "address",
          "name": "sender",
          "type": "address"
        }
      ],
      "name": "ERC20InvalidSender",
      "type": "error"
    },
    {
      "inputs": [
        {
          "internalType": "address",
          "name": "spender",
          "type": "address"
        }
      ],
      "name": "ERC20InvalidSpender",
      "type": "error"
    },
    {
      "inputs": [
        {
          "internalType": "address",
          "name": "owner",
          "type": "address"
        }
      ],
      "name": "OwnableInvalidOwner",
      "type": "error"
    },
    {
      "inputs": [
        {
          "internalType": "address",
          "name": "account",
          "type": "address"
        }
      ],
      "name": "OwnableUnauthorizedAccount",
      "type": "error"
    },
    {
      "anonymous": false,
      "inputs": [
        {
          "indexed": true,
          "internalType": "address",
          "name": "owner",
          "type": "address"
        },
        {
          "indexed": true,
          "internalType": "address",
          "name": "spender",
          "type": "address"
        },
        {
          "indexed": false,
          "internalType": "uint256",
          "name": "value",
          "type": "uint256"
        }
      ],
      "name": "Approval",
      "type": "event"
    },
    {
      "anonymous": false,
      "inputs": [
        {
          "indexed": true,
          "internalType": "address",
          "name": "previousOwner",
          "type": "address"
        },
        {
          "indexed": true,
          "internalType": "address",
          "name": "newOwner",
          "type": "address"
        }
      ],
      "name": "OwnershipTransferred",
      "type": "event"
    },
    {
      "anonymous": false,
      "inputs": [
        {
          "indexed": true,
          "internalType": "address",
          "name": "from",
          "type": "address"
        },
        {
          "indexed": true,
          "internalType": "address",
          "name": "to",
          "type": "address"
        },
        {
          "indexed": false,
          "internalType": "uint256",
          "name": "value",
          "type": "uint256"
        }
      ],
      "name": "Transfer",
      "type": "event"
    },
    {
      "inputs": [
        {
          "internalType": "uint256",
          "name": "",
          "type": "uint256"
        }
      ],
      "name": "activeListingIds",
      "outputs": [
        {
          "internalType": "uint256",
          "name": "",
          "type": "uint256"
        }
      ],
      "stateMutability": "view",
      "type": "function"
    },
    {
      "inputs": [
        {
          "internalType": "address",
          "name": "owner",
          "type": "address"
        },
        {
          "internalType": "address",
          "name": "spender",
          "type": "address"
        }
      ],
      "name": "allowance",
      "outputs": [
        {
          "internalType": "uint256",
          "name": "",
          "type": "uint256"
        }
      ],
      "stateMutability": "view",
      "type": "function"
    },
    {
      "inputs": [
        {
          "internalType": "address",
          "name": "spender",
          "type": "address"
        },
        {
          "internalType": "uint256",
          "name": "value",
          "type": "uint256"
        }
      ],
      "name": "approve",
      "outputs": [
        {
          "internalType": "bool",
          "name": "",
          "type": "bool"
        }
      ],
      "stateMutability": "nonpayable",
      "type": "function"
    },
    {
      "inputs": [
        {
          "internalType": "address",
          "name": "account",
          "type": "address"
        }
      ],
      "name": "balanceOf",
      "outputs": [
        {
          "internalType": "uint256",
          "name": "",
          "type": "uint256"
        }
      ],
      "stateMutability": "view",
      "type": "function"
    },
    {
      "inputs": [],
      "name": "decimals",
      "outputs": [
        {
          "internalType": "uint8",
          "name": "",
          "type": "uint8"
        }
      ],
      "stateMutability": "view",
      "type": "function"
    },
    {
      "inputs": [
        {
          "internalType": "uint256",
          "name": "_amount",
          "type": "uint256"
        },
        {
          "internalType": "uint256",
          "name": "_price",
          "type": "uint256"
        },
        {
          "internalType": "string",
          "name": "_qrUrl",
          "type": "string"
        }
      ],
      "name": "listWithPrice",
      "outputs": [],
      "stateMutability": "nonpayable",
      "type": "function"
    },
    {
      "inputs": [
        {
          "internalType": "uint256",
          "name": "_listingId",
          "type": "uint256"
        }
      ],
      "name": "markAsPaid",
      "outputs": [],
      "stateMutability": "nonpayable",
      "type": "function"
    },
    {
      "inputs": [
        {
          "internalType": "uint256",
          "name": "",
          "type": "uint256"
        }
      ],
      "name": "marketListings",
      "outputs": [
        {
          "internalType": "uint256",
          "name": "id",
          "type": "uint256"
        },
        {
          "internalType": "address",
          "name": "seller",
          "type": "address"
        },
        {
          "internalType": "uint256",
          "name": "amount",
          "type": "uint256"
        },
        {
          "internalType": "uint256",
          "name": "pricePerToken",
          "type": "uint256"
        },
        {
          "internalType": "string",
          "name": "qrCodeUrl",
          "type": "string"
        },
        {
          "internalType": "bool",
          "name": "isPaid",
          "type": "bool"
        },
        {
          "internalType": "bool",
          "name": "active",
          "type": "bool"
        }
      ],
      "stateMutability": "view",
      "type": "function"
    },
    {
      "inputs": [
        {
          "internalType": "address",
          "name": "company",
          "type": "address"
        },
        {
          "internalType": "uint256",
          "name": "amount",
          "type": "uint256"
        }
      ],
      "name": "mintCredits",
      "outputs": [],
      "stateMutability": "nonpayable",
      "type": "function"
    },
    {
      "inputs": [],
      "name": "name",
      "outputs": [
        {
          "internalType": "string",
          "name": "",
          "type": "string"
        }
      ],
      "stateMutability": "view",
      "type": "function"
    },
    {
      "inputs": [],
      "name": "nextListingId",
      "outputs": [
        {
          "internalType": "uint256",
          "name": "",
          "type": "uint256"
        }
      ],
      "stateMutability": "view",
      "type": "function"
    },
    {
      "inputs": [],
      "name": "owner",
      "outputs": [
        {
          "internalType": "address",
          "name": "",
          "type": "address"
        }
      ],
      "stateMutability": "view",
      "type": "function"
    },
    {
      "inputs": [
        {
          "internalType": "uint256",
          "name": "_listingId",
          "type": "uint256"
        },
        {
          "internalType": "address",
          "name": "_buyer",
          "type": "address"
        }
      ],
      "name": "releaseTokens",
      "outputs": [],
      "stateMutability": "nonpayable",
      "type": "function"
    },
    {
      "inputs": [],
      "name": "renounceOwnership",
      "outputs": [],
      "stateMutability": "nonpayable",
      "type": "function"
    },
    {
      "inputs": [
        {
          "internalType": "uint256",
          "name": "_amount",
          "type": "uint256"
        }
      ],
      "name": "retireCredits",
      "outputs": [],
      "stateMutability": "nonpayable",
      "type": "function"
    },
    {
      "inputs": [],
      "name": "symbol",
      "outputs": [
        {
          "internalType": "string",
          "name": "",
          "type": "string"
        }
      ],
      "stateMutability": "view",
      "type": "function"
    },
    {
      "inputs": [],
      "name": "totalSupply",
      "outputs": [
        {
          "internalType": "uint256",
          "name": "",
          "type": "uint256"
        }
      ],
      "stateMutability": "view",
      "type": "function"
    },
    {
      "inputs": [
        {
          "internalType": "address",
          "name": "to",
          "type": "address"
        },
        {
          "internalType": "uint256",
          "name": "value",
          "type": "uint256"
        }
      ],
      "name": "transfer",
      "outputs": [
        {
          "internalType": "bool",
          "name": "",
          "type": "bool"
        }
      ],
      "stateMutability": "nonpayable",
      "type": "function"
    },
    {
      "inputs": [
        {
          "internalType": "address",
          "name": "from",
          "type": "address"
        },
        {
          "internalType": "address",
          "name": "to",
          "type": "address"
        },
        {
          "internalType": "uint256",
          "name": "value",
          "type": "uint256"
        }
      ],
      "name": "transferFrom",
      "outputs": [
        {
          "internalType": "bool",
          "name": "",
          "type": "bool"
        }
      ],
      "stateMutability": "nonpayable",
      "type": "function"
    },
    {
      "inputs": [
        {
          "internalType": "address",
          "name": "newOwner",
          "type": "address"
        }
      ],
      "name": "transferOwnership",
      "outputs": [],
      "stateMutability": "nonpayable",
      "type": "function"
    }
  ],
  "bytecode": "0x60806040523480156200001157600080fd5b50336040518060400160405280600c81526020016b10d85c989bdb90dc99591a5d60a21b8152506040518060400160405280600381526020016210d0d560ea1b8152508160039081620000659190620001af565b506004620000748282620001af565b5050506001600160a01b038116620000a657604051631e4fbdf760e01b81526000600482015260240160405180910390fd5b620000b181620000b8565b506200027b565b600580546001600160a01b038381166001600160a01b0319831681179093556040519116919082907f8be0079c531659141344cd1fd0a4f28419497f9722a3daafe3b4186f6b6457e090600090a35050565b634e487b7160e01b600052604160045260246000fd5b600181811c908216806200013557607f821691505b6020821081036200015657634e487b7160e01b600052602260045260246000fd5b50919050565b601f821115620001aa57600081815260208120601f850160051c81016020861015620001855750805b601f850160051c820191505b81811015620001a65782815560010162000191565b5050505b505050565b81516001600160401b03811115620001cb57620001cb6200010a565b620001e381620001dc845462000120565b846200015c565b602080601f8311600181146200021b5760008415620002025750858301515b600019600386901b1c1916600185901b178555620001a6565b600085815260208120601f198616915b828110156200024c578886015182559484019460019091019084016200022b565b50858210156200026b5787850151600019600388901b60f8161c191681555b5050505050600190811b01905550565b6110c1806200028b6000396000f3fe608060405234801561001057600080fd5b50600436106100fc5760003560e01c806306fdde0314610101578063095ea7b31461011f57806318160ddd146101425780632039e3391461015457806323b872dd146101695780632a7d3e8d1461017c578063307889521461018f578063313ce567146101b55780637021cafe146101c457806370a08231146101d7578063715018a6146101ea5780638da5cb5b146101f257806395d89b41146102075780639bae87471461020f578063a9059cbb14610222578063aaccf1ec14610235578063c00608631461023e578063dd62ed3e14610251578063e3b6a1f614610264578063f2fde38b14610277575b600080fd5b61010961028a565b6040516101169190610c80565b60405180910390f35b61013261012d366004610cb6565b61031c565b6040519015158152602001610116565b6002545b604051908152602001610116565b610167610162366004610ce0565b610336565b005b610132610177366004610cf9565b6103a0565b61016761018a366004610d35565b6103c4565b6101a261019d366004610ce0565b6104ea565b6040516101169796959493929190610d61565b60405160008152602001610116565b6101676101d2366004610ce0565b6105bf565b6101466101e5366004610daf565b610638565b610167610653565b6101fa610667565b6040516101169190610dca565b610109610676565b61016761021d366004610cb6565b610685565b610132610230366004610cb6565b61069b565b61014660065481565b61016761024c366004610df4565b6106a9565b61014661025f366004610eb7565b610817565b610146610272366004610ce0565b610842565b610167610285366004610daf565b610863565b60606003805461029990610ee1565b80601f01602080910402602001604051908101604052809291908181526020018280546102c590610ee1565b80156103125780601f106102e757610100808354040283529160200191610312565b820191906000526020600020905b8154815290600101906020018083116102f557829003601f168201915b5050505050905090565b60003361032a81858561089e565b60019150505b92915050565b8061034033610638565b10156103935760405162461bcd60e51b815260206004820152601e60248201527f496e73756666696369656e74206372656469747320746f20726574697265000060448201526064015b60405180910390fd5b61039d33826108ab565b50565b6000336103ae8582856108e1565b6103b9858585610935565b506001949350505050565b600082815260076020526040902060018101546001600160a01b031633146104285760405162461bcd60e51b81526020600482015260176024820152764f6e6c792073656c6c65722063616e2072656c6561736560481b604482015260640161038a565b600581015460ff1661047b5760405162461bcd60e51b815260206004820152601c60248201527b109d5e595c881a185cc81b9bdd081b585c9ad95908185cc81c185a5960221b604482015260640161038a565b6005810154610100900460ff166104c65760405162461bcd60e51b815260206004820152600f60248201526e105b1c9958591e481cd95d1d1b1959608a1b604482015260640161038a565b60058101805461ff001916905560028101546104e59030908490610935565b505050565b6007602052600090815260409020805460018201546002830154600384015460048501805494956001600160a01b03909416949293919261052a90610ee1565b80601f016020809104026020016040519081016040528092919081815260200182805461055690610ee1565b80156105a35780601f10610578576101008083540402835291602001916105a3565b820191906000526020600020905b81548152906001019060200180831161058657829003601f168201915b5050506005909301549192505060ff8082169161010090041687565b600081815260076020526040902060050154610100900460ff1661061a5760405162461bcd60e51b81526020600482015260126024820152714c697374696e67206e6f742061637469766560701b604482015260640161038a565b6000908152600760205260409020600501805460ff19166001179055565b6001600160a01b031660009081526020819052604090205490565b61065b610994565b61066560006109c6565b565b6005546001600160a01b031690565b60606004805461029990610ee1565b61068d610994565b6106978282610a18565b5050565b60003361032a818585610935565b826106b333610638565b10156106f85760405162461bcd60e51b8152602060048201526014602482015273496e73756666696369656e742062616c616e636560601b604482015260640161038a565b610703333085610935565b6040805160e0810182526006548082523360208084019182528385018881526060850188815260808601888152600060a08801819052600160c0890181905296815260079094529690922085518155925193830180546001600160a01b0319166001600160a01b03909516949094179093559151600282015590516003820155915190919060048201906107979082610f69565b5060a08201516005909101805460c09093015115156101000261ff00199215159290921661ffff1990931692909217179055600680546008805460018101825560009182527ff3f7a9fe364faab93b216da50a3214154f22a0a2b415b23a84c8169e8b636ee30182905590919061080d8361103e565b9190505550505050565b6001600160a01b03918216600090815260016020908152604080832093909416825291909152205490565b6008818154811061085257600080fd5b600091825260209091200154905081565b61086b610994565b6001600160a01b038116610895576000604051631e4fbdf760e01b815260040161038a9190610dca565b61039d816109c6565b6104e58383836001610a4e565b6001600160a01b0382166108d5576000604051634b637e8f60e11b815260040161038a9190610dca565b61069782600083610b23565b60006108ed8484610817565b905060001981101561092f578181101561092057828183604051637dc7a0d960e11b815260040161038a93929190611057565b61092f84848484036000610a4e565b50505050565b6001600160a01b03831661095f576000604051634b637e8f60e11b815260040161038a9190610dca565b6001600160a01b03821661098957600060405163ec442f0560e01b815260040161038a9190610dca565b6104e5838383610b23565b3361099d610667565b6001600160a01b031614610665573360405163118cdaa760e01b815260040161038a9190610dca565b600580546001600160a01b038381166001600160a01b0319831681179093556040519116919082907f8be0079c531659141344cd1fd0a4f28419497f9722a3daafe3b4186f6b6457e090600090a35050565b6001600160a01b038216610a4257600060405163ec442f0560e01b815260040161038a9190610dca565b61069760008383610b23565b6001600160a01b038416610a7857600060405163e602df0560e01b815260040161038a9190610dca565b6001600160a01b038316610aa2576000604051634a1406b160e11b815260040161038a9190610dca565b6001600160a01b038085166000908152600160209081526040808320938716835292905220829055801561092f57826001600160a01b0316846001600160a01b03167f8c5be1e5ebec7d5bd14f71427d1e84f3dd0314c0f7b2291e5b200ac8c7c3b92584604051610b1591815260200190565b60405180910390a350505050565b6001600160a01b038316610b4e578060026000828254610b439190611078565b90915550610bad9050565b6001600160a01b03831660009081526020819052604090205481811015610b8e5783818360405163391434e360e21b815260040161038a93929190611057565b6001600160a01b03841660009081526020819052604090209082900390555b6001600160a01b038216610bc957600280548290039055610be8565b6001600160a01b03821660009081526020819052604090208054820190555b816001600160a01b0316836001600160a01b03167fddf252ad1be2c89b69c2b068fc378daa952ba7f163c4a11628f55a4df523b3ef83604051610c2d91815260200190565b60405180910390a3505050565b6000815180845260005b81811015610c6057602081850181015186830182015201610c44565b506000602082860101526020601f19601f83011685010191505092915050565b602081526000610c936020830184610c3a565b9392505050565b80356001600160a01b0381168114610cb157600080fd5b919050565b60008060408385031215610cc957600080fd5b610cd283610c9a565b946020939093013593505050565b600060208284031215610cf257600080fd5b5035919050565b600080600060608486031215610d0e57600080fd5b610d1784610c9a565b9250610d2560208501610c9a565b9150604084013590509250925092565b60008060408385031215610d4857600080fd5b82359150610d5860208401610c9a565b90509250929050565b87815260018060a01b038716602082015285604082015284606082015260e060808201526000610d9460e0830186610c3a565b93151560a08301525090151560c09091015295945050505050565b600060208284031215610dc157600080fd5b610c9382610c9a565b6001600160a01b0391909116815260200190565b634e487b7160e01b600052604160045260246000fd5b600080600060608486031215610e0957600080fd5b833592506020840135915060408401356001600160401b0380821115610e2e57600080fd5b818601915086601f830112610e4257600080fd5b813581811115610e5457610e54610dde565b604051601f8201601f19908116603f01168101908382118183101715610e7c57610e7c610dde565b81604052828152896020848701011115610e9557600080fd5b8260208601602083013760006020848301015280955050505050509250925092565b60008060408385031215610eca57600080fd5b610ed383610c9a565b9150610d5860208401610c9a565b600181811c90821680610ef557607f821691505b602082108103610f1557634e487b7160e01b600052602260045260246000fd5b50919050565b601f8211156104e557600081815260208120601f850160051c81016020861015610f425750805b601f850160051c820191505b81811015610f6157828155600101610f4e565b505050505050565b81516001600160401b03811115610f8257610f82610dde565b610f9681610f908454610ee1565b84610f1b565b602080601f831160018114610fcb5760008415610fb35750858301515b600019600386901b1c1916600185901b178555610f61565b600085815260208120601f198616915b82811015610ffa57888601518255948401946001909101908401610fdb565b50858210156110185787850151600019600388901b60f8161c191681555b5050505050600190811b01905550565b634e487b7160e01b600052601160045260246000fd5b60006001820161105057611050611028565b5060010190565b6001600160a01b039390931683526020830191909152604082015260600190565b808201808211156103305761033061102856fea2646970667358221220dd2a222439ab3f2e45f441635233f6bf0bcfe0f967134e01b60a1128457c283f64736f6c63430008140033",
  "linkReferences": {},
  "deployedLinkReferences": {}
}